:100000000C9435000C945D000C945D000C945D0024
:100010000C945D000C945D000C945D000C945D00EC
:100020000C945D000C945D000C945D000C945D00DC
:100030000C945D000C945D000C945D000C945D00CC
:100040000C94E6000C945D000C9457070C94AD07DB
:100050000C945D000C94E3010C945D000C945D0025
:100060000C945D000C945D00FE0811241FBECFEFC0
:10007000D8E0DEBFCDBF11E0A0E0B1E0E8E3F2E1FF
:1000800002C005900D92AC30B107D9F721E0ACE089
:10009000B1E001C01D92A23DB207E1F710E0C5E357
:1000A000D0E004C02197FE010E941409C433D10797
:1000B000C9F70E94F9080C941A090C9400008AE010
:1000C0008093810010928B0010928A00229A2A98C5
:1000D000089583EF8093B00084BD82E08093B100E7
:1000E00085BD1092B4001092B30018BC17BCEEE6A8
:1000F000F0E08081816080838AB188668AB9239A22
:100100005D985E985B982B98089514BC1092B0008F
:1001100015BC1092B1000895992364F418BC919510
:10012000819591098F3F910519F014F08FEF90E0C0
:1001300087BD08958F3F910519F014F08FEF90E07F
:1001400088BD17BC0895992374F41092B40091955A
:10015000819591098F3F910519F014F08FEF90E090
:100160008093B30008958F3F910519F014F08FEF3D
:1001700090E08093B4001092B30008959093C5016D
:100180008093C40120910001222321F081E080931B
:10019000BD0108950E94A30008959093C301809328
:1001A000C20120910001222321F081E08093BC0153
:1001B00008950E948C000895882321F0CB010E94AD
:1001C000A3000895CB010E948C0008951F920F9206
:1001D0000FB60F9211242F933F934F935F936F931A
:1001E0007F938F939F93AF93BF93CF93DF93EF93BF
:1001F000FF938091BA018F5F8093BA018A3009F032
:10020000CFC01092BA018091B6019091B701A09130
:10021000B801B091B9010196A11DB11D8093B6013D
:100220009093B701A093B801B093B9018091CF0129
:10023000882309F44AC08091CC019091CD018F3F71
:100240002FEF920709F441C001979093CD0180935D
:10025000CC01892BD1F58091CE018823F9F08091D2
:10026000CA019091CB01009739F48FEF9FEF9093E3
:10027000CD018093CC0104C09093CD018093CC013B
:10028000E0E8F0E080818F7E8083E6ECF1E0818120
:100290008093890080818093880011C0E6ECF1E0B2
:1002A0008281938197838683A0E8B0E08C918061FE
:1002B0008C93818180938900808180938800E6EC13
:1002C000F1E0908581E0892780878091BB018111D1
:1002D00067C081E08093BB01C0E0D0E08C2F9E011D
:1002E000FE01E454FE4F9081992309F452C0AE01FF
:1002F000440F551FFA01EE53FE4F60817181FA01E0
:10030000E254FE4F408151816417750729F4F901C9
:10031000E454FE4F10823DC0A901440F551FFA015D
:10032000EE53FE4F60817181FA01E254FE4F40812D
:100330005181641B750BAB0122F444275527461BE2
:10034000570B1416150614F441E050E0B901660F7E
:10035000771FFB01EE53FE4F0190F081E02DDB0192
:10036000A254BE4F6D917C91E617F7071CF451958E
:1003700041955109220F331FF901E254FE4F2081AC
:100380003181420F531F51834083608171810E94EC
:10039000DC002196C230D10509F0A0CF1092BB013C
:1003A000FF91EF91DF91CF91BF91AF919F918F918D
:1003B0007F916F915F914F913F912F910F900FBE61
:1003C0000F901F9018951F920F920FB60F92112445
:1003D0002F938F939F93EF93FF9380910E01882328
:1003E00009F46DC0809178002091790090E0922B03
:1003F000E0910D0121E02E0F20930D01F0E0EE0FB2
:10040000FF1FE855FE4F91838083273009F04EC0CF
:1004100010920D012091D001222309F461C08F3880
:1004200022E0920708F057C05BC08091D00188237A
:10043000E9F1E6ECF1E0128611861086E0E8F0E0E2
:1004400010821092810080818F7E80832FC08E3831
:10045000924008F44AC02AC08091D001811126C080
:10046000E6ECF1E081E08287108688EE93E09383EA
:10047000828384EF91E09583848380819181892BAD
:10048000A9F081E08187808788EE93E09783868357
:100490008AE08093810081818093890080818093AC
:1004A0008800E0E8F0E0808180618083E0910D01C8
:1004B000F0E0EB5FFE4F8081806480937C00909140
:1004C0000E0181E0892780930E01EAE7F0E0808148
:1004D000806480830FC08091D1018111A6CFE6CFC7
:1004E0002091D0012111E2CFB2CF8091D1018111B1
:1004F000B3CFDCCFFF91EF919F918F912F910F9010
:100500000FBE0F901F90189520E030E040E054E0BF
:10051000C901880F991FFC01EC56FE4F1182108211
:10052000FC01E256FE4F518340832F5F3F4F253041
:10053000310571F708958FE380937E008FED8093EE
:100540007A0010927B0080E480937C0088B18F63F6
:1005500088B9E8EAF1E080E094E0918380839383B6
:10056000828395838483978386839187808793870B
:100570008287958784870E94840208950F931F9332
:10058000CF93DF935AB157985A98289AA4ECB9E0C0
:1005900081E090E0FC016F9364E06A95F1F76F9160
:1005A0003197C9F75C9AFC016F9364E06A95F1F7A3
:1005B0006F913197C9F739B15C98FC016F9364E092
:1005C0006A95F1F76F913197C9F75C9AFC016F93C7
:1005D00064E06A95F1F76F913197C9F75C9833231E
:1005E0001CF4119709F0D6CF5AB954B135B1EAB11C
:1005F0007BB12898442311F05A9A01C05A9884B1CB
:10060000826384B9579A213009F433C0862F90E071
:1006100095958795959587959595879595958795C2
:1006200095B1082F017010E0000F111F282F2670C0
:10063000220F220F220F022B9D7C092B05B99BB1A3
:1006400088708295807F9F77892B8BB95C9A81E037
:1006500090E0DC016F9364E06A95F1F76F91119778
:10066000C9F75C986F9364E06A95F1F76F91019711
:10067000C9F785B1962F9170C92F90E0D92FCC0F73
:10068000DD1F962F9670990F990F990FC92B8D7CAE
:10069000C82BC5B98BB168706295607F8F77682B66
:1006A0006BB95C9A81E090E0DC016F9364E06A953D
:1006B000F1F76F911197C9F75C986F9364E06A95B1
:1006C000F1F76F910197C9F7EAB97BB954B935B918
:1006D000DF91CF911F910F910895529A209A549AC9
:1006E0008EE190E028EE33E0F9016F9364E06A95C3
:1006F000F1F76F913197C9F70197B1F75AB1579850
:100700005A98289A24EC39E081E090E0FC016F933C
:1007100064E06A95F1F76F913197C9F75C9AFC0133
:100720006F9364E06A95F1F76F913197C9F749B11A
:100730005C98FC016F9364E06A95F1F76F913197D3
:10074000C9F75C9AFC016F9364E06A95F1F76F91C9
:100750003197C9F75C98442324F42150310909F0FA
:10076000D5CF5AB934B125B15AB14BB128985A985E
:1007700084B1826384B9579A85B18D7C826185B9D1
:100780005F985C9A81E090E0FC016F9364E06A9569
:10079000F1F76F913197C9F75C986F9364E06A95B0
:1007A000F1F76F910197C9F75AB94BB934B925B927
:1007B00086E090E028EE33E0F9016F9364E06A95FB
:1007C000F1F76F913197C9F70197B1F75AB157987F
:1007D0005A98289A24EC39E081E090E0FC016F936C
:1007E00064E06A95F1F76F913197C9F75C9AFC0163
:1007F0006F9364E06A95F1F76F913197C9F749B14A
:100800005C98FC016F9364E06A95F1F76F91319702
:10081000C9F75C9AFC016F9364E06A95F1F76F91F8
:100820003197C9F75C98442324F42150310909F029
:10083000D5CF5AB934B125B15AB14BB128985A988D
:1008400084B1826384B9579A85B18D7C826185B900
:100850005F985C9A81E090E0FC016F9364E06A9598
:10086000F1F76F913197C9F75C986F9364E06A95DF
:10087000F1F76F910197C9F75AB94BB934B925B956
:1008800088EE93E0FC016F9364E06A95F1F76F9155
:100890003197C9F76F9364E06A95F1F76F9101970B
:1008A000C9F75AB157985A98289A24EC39E081E050
:1008B00090E0FC016F9364E06A95F1F76F913197D6
:1008C000C9F75C9AFC016F9364E06A95F1F76F9148
:1008D0003197C9F749B15C98FC016F9364E06A9560
:1008E000F1F76F913197C9F75C9AFC016F9364E05F
:1008F0006A95F1F76F913197C9F75C98442324F416
:100900002150310909F0D5CF5AB934B125B15AB1C6
:100910004BB128985A9884B1826384B9579A85B1AB
:100920008D7C826185B95F985C9A81E090E0FC01E2
:100930006F9364E06A95F1F76F913197C9F75C980E
:100940006F9364E06A95F1F76F910197C9F75AB90F
:100950004BB934B925B988EE93E0FC016F9364E09C
:100960006A95F1F76F913197C9F76F9364E06A95D3
:10097000F1F76F910197C9F75AB157985A98289A89
:1009800024EC39E081E090E0FC016F9364E06A952B
:10099000F1F76F913197C9F75C9AFC016F9364E0AE
:1009A0006A95F1F76F913197C9F749B15C98FC01ED
:1009B0006F9364E06A95F1F76F913197C9F75C9A8C
:1009C000FC016F9364E06A95F1F76F913197C9F775
:1009D0005C98442324F42150310909F0D5CF5AB949
:1009E00034B125B15AB14BB128985A9884B1826379
:1009F00084B9579A85B18D7C806185B95F985C9A7E
:100A000081E090E0FC016F9364E06A95F1F76F91EB
:100A10003197C9F75C986F9364E06A95F1F76F912D
:100A20000197C9F75AB94BB934B925B988EE93E0A3
:100A3000FC016F9364E06A95F1F76F913197C9F704
:100A40006F9364E06A95F1F76F910197C9F75AB116
:100A500057985A98289A24EC39E081E090E0FC01FC
:100A60006F9364E06A95F1F76F913197C9F75C9ADB
:100A7000FC016F9364E06A95F1F76F913197C9F7C4
:100A800049B15C98FC016F9364E06A95F1F76F914E
:100A90003197C9F75C9AFC016F9364E06A95F1F7AE
:100AA0006F913197C9F75C98442324F421503109A0
:100AB00009F0D5CF5AB944B135B16AB15BB12898C4
:100AC0005A9884B1826384B9579A85B18D7C8061CC
:100AD00085B95F985C9A81E090E0FC016F9364E0D7
:100AE0006A95F1F76F913197C9F75C98FC016F93A4
:100AF00064E06A95F1F76F913197C9F725B12D7CC4
:100B000025B95F9A5C9AFC016F9364E06A95F1F7EE
:100B10006F913197C9F75C986F9364E06A95F1F72C
:100B20006F910197C9F76AB95BB944B935B95AB140
:100B300057985A98289A24EC39E081E090E0FC011B
:100B40006F9364E06A95F1F76F913197C9F75C9AFA
:100B5000FC016F9364E06A95F1F76F913197C9F7E3
:100B600049B15C98FC016F9364E06A95F1F76F916D
:100B70003197C9F75C9AFC016F9364E06A95F1F7CD
:100B80006F913197C9F75C98442324F421503109BF
:100B900009F0D5CF5AB944B135B16AB15BB12898E3
:100BA0005A9884B1826384B9579A85B18D7C85B98E
:100BB0005F985C9A81E090E0FC016F9364E06A9535
:100BC000F1F76F913197C9F75C98FC016F9364E07E
:100BD0006A95F1F76F913197C9F725B12D7C25B949
:100BE0005F9A5C9AFC016F9364E06A95F1F76F91EC
:100BF0003197C9F75C986F9364E06A95F1F76F914C
:100C00000197C9F76AB95BB944B935B95AB1579870
:100C10005A98289A24EC39E081E090E0FC016F9327
:100C200064E06A95F1F76F913197C9F75C9AFC011E
:100C30006F9364E06A95F1F76F913197C9F749B105
:100C40005C98FC016F9364E06A95F1F76F913197BE
:100C5000C9F75C9AFC016F9364E06A95F1F76F91B4
:100C60003197C9F75C98442324F42150310909F0E5
:100C7000D5CF5AB944B135B16AB15BB128985A9809
:100C800084B1826384B9579A85B18D7C85B95F98A8
:100C90005C9A81E090E0FC016F9364E06A95F1F763
:100CA0006F913197C9F75C98FC016F9364E06A9586
:100CB000F1F76F913197C9F725B12D7C226025B9E5
:100CC0005F985C9AFC016F9364E06A95F1F76F910D
:100CD0003197C9F75C986F9364E06A95F1F76F916B
:100CE0000197C9F76AB95BB944B935B95AB1579890
:100CF0005A98289A24EC39E081E090E0FC016F9347
:100D000064E06A95F1F76F913197C9F75C9AFC013D
:100D10006F9364E06A95F1F76F913197C9F749B124
:100D20005C98FC016F9364E06A95F1F76F913197DD
:100D3000C9F75C9AFC016F9364E06A95F1F76F91D3
:100D40003197C9F75C98442324F42150310909F004
:100D5000D5CF5AB944B135B16AB15BB128985A9828
:100D600084B1826384B9579A85B18D7C85B95F98C7
:100D70005C9A81E090E0FC016F9364E06A95F1F782
:100D80006F913197C9F75C98FC016F9364E06A95A5
:100D9000F1F76F913197C9F725B12D7C206325B903
:100DA0005F985C9AFC016F9364E06A95F1F76F912C
:100DB0003197C9F75C986F9364E06A95F1F76F918A
:100DC0000197C9F76AB95BB944B935B95AB15798AF
:100DD0005A98289A24EC39E081E090E0FC016F9366
:100DE00064E06A95F1F76F913197C9F75C9AFC015D
:100DF0006F9364E06A95F1F76F913197C9F749B144
:100E00005C98FC016F9364E06A95F1F76F913197FC
:100E1000C9F75C9AFC016F9364E06A95F1F76F91F2
:100E20003197C9F75C98442324F42150310909F023
:100E3000D5CF5AB944B135B16AB15BB128985A9847
:100E400084B1826384B9579A85B18D7C85B95F98E6
:100E50005C9A81E090E0FC016F9364E06A95F1F7A1
:100E60006F913197C9F75C98FC016F9364E06A95C4
:100E7000F1F76F913197C9F725B12D7C206225B923
:100E80005F9A5C9AFC016F9364E06A95F1F76F9149
:100E90003197C9F75C986F9364E06A95F1F76F91A9
:100EA0000197C9F76AB95BB944B935B908951F927A
:100EB0000F920FB60F9211242F933F934F935F938E
:100EC0006F937F938F939F93AF93BF93EF93FF9312
:100ED0009091C60080910C01E82FF0E0EF5FFE4F8B
:100EE0002081921316C08F5F80930C01843099F497
:100EF0000E94850022E040E061E083E991E00E94E9
:100F0000BE02F894E0E6F0E088E1808388E0808328
:100F1000FFCF10920C01E091300181E08E0F803202
:100F200009F480E020912F01281731F0F0E0E15F13
:100F3000FE4F908380933001FF91EF91BF91AF916D
:100F40009F918F917F916F915F914F913F912F91E1
:100F50000F900FBE0F901F9018951F920F920FB613
:100F60000F9211248F939F93AF93BF93EF93FF93AF
:100F70009091910180919201981789F0A1E9B1E0D7
:100F8000EC91F0E0E15FFE4F92A18C918F5F803693
:100F900009F480E0809391019093C60005C0E1ECD4
:100FA000F0E080818F7D8083FF91EF91BF91AF91C1
:100FB0009F918F910F900FBE0F901F90189584B145
:100FC0008D7C84B985B1826385B908950E945F00E4
:100FD0000E9469000E949B020E946D0382E0809340
:100FE000C00086E08093C2001092C50085E1809326
:100FF000C40088E98093C1000E94DF070895CFE014
:10100000D1E0812C782C982C08EE13E00F2EF2E919
:10101000EF2EF1E0FF2EF02D0F2EF1E9CF2EF1E0B3
:10102000DF2EF02D0F2EF1ECAF2EB12CF02D0F2E68
:10103000F0E35F2EF02D98A189A19817E1F3E8A1C4
:10104000F0E0E15FFE4F908188A18F5F803209F46C
:10105000892D88A3903879F798A189A19817E1F391
:10106000E8A1F0E0E15FFE4F808198A19F5F9032A0
:1010700009F4972D98A390E0959587959595879578
:1010800081309105F1F01CF4892B41F0D4CF8230EE
:10109000910551F1839709F44EC0CDCF98A189A154
:1010A0009817E1F3E8A1F0E0E15FFE4F808198A19D
:1010B0009F5F903209F4982D98A390E00E94CD0094
:1010C000BACF98A189A19817E1F3E8A1F0E0E15F18
:1010D000FE4F808198A19F5F903209F4982D98A3CC
:1010E00090E00E94BE00A7CF98A189A19817E1F3D4
:1010F000E8A1F0E0E15FFE4F208188A18F5F8032A0
:1011000009F4882D88A330E098A189A19817E1F30C
:10111000E8A1F0E0E15FFE4F608098A19F5F903210
:1011200009F4982D98A3C9010E94CD00862D90E066
:101130000E94BE0080CF98A189A19817E1F388A1F1
:1011400088A18F5F803209F4882D88A388EE93E010
:10115000F8016F9364E06A95F1F76F913197C9F7E1
:101160000197B1F783B1982F927081FD22C0392F7A
:10117000D7018C918F5F803609F4832FF60120818F
:101180002817B1F3D701EC9181E08E0F803609F07A
:10119000982FD6018C91891739F0F0E0E15FFE4F6E
:1011A00081E382A3F7019083D5018C9180628C93B7
:1011B00042CFF70180818F5F803609F4872DD601F9
:1011C0009C919817B1F3D701EC9181E08E0F803696
:1011D00009F4882DD6019C91981731F0F0E0E15F79
:1011E000FE4F52A2F7018083D5018C9180628C93CF
:1011F00022CF0E94E60778940E94FF07E6ECF1E018
:1012000011861386108684EC99E091838083158281
:10121000148213821282EFE0F1E010A211A2109268
:101220009101109292010895EE0FFF1F0590F49125
:08123000E02D0994F894FFCFB2
:0C12380001747E7A3300010203040607F3
:00000001FF
