S01A00003370695F42617474657279436F6E74726F6C2E73726563E3
S11300000C9435000C945D000C945D000C945D0020
S11300100C945D000C945D000C945D000C945D00E8
S11300200C945D000C945D000C945D000C945D00D8
S11300300C945D000C945D000C945D000C945D00C8
S11300400C94E6000C945D000C9457070C94AD07D7
S11300500C945D000C94E3010C945D000C945D0021
S11300600C945D000C945D00510D11241FBECFEF64
S1130070D8E0DEBFCDBF11E0A0E0B1E0EEE4FBE1EB
S113008002C005900D92AC30B107D9F721E0ACE085
S1130090B1E001C01D92A23DB207E1F710E0C5E353
S11300A0D0E004C02197FE010E949F0DC433D10704
S11300B0C9F70E944C0D0C94A50D0C9400008AE025
S11300C08093810010928B0010928A00229A2A98C1
S11300D0089583EF8093B00084BD82E08093B100E3
S11300E085BD1092B4001092B30018BC17BCEEE6A4
S11300F0F0E08081816080838AB188668AB9239A1E
S11301005D985E985B982B98089514BC1092B0008B
S113011015BC1092B1000895992364F418BC91950C
S1130120819591098F3F910519F014F08FEF90E0BC
S113013087BD08958F3F910519F014F08FEF90E07B
S113014088BD17BC0895992374F41092B400919556
S1130150819591098F3F910519F014F08FEF90E08C
S11301608093B30008958F3F910519F014F08FEF39
S113017090E08093B4001092B30008959093C50169
S11301808093C40120910001222321F081E0809317
S1130190BD0108950E94A30008959093C301809324
S11301A0C20120910001222321F081E08093BC014F
S11301B008950E948C000895882321F0CB010E94A9
S11301C0A3000895CB010E948C0008951F920F9202
S11301D00FB60F9211242F933F934F935F936F9316
S11301E07F938F939F93AF93BF93CF93DF93EF93BB
S11301F0FF938091BA018F5F8093BA018A3009F02E
S1130200CFC01092BA018091B6019091B701A0912C
S1130210B801B091B9010196A11DB11D8093B60139
S11302209093B701A093B801B093B9018091CF0125
S1130230882309F44AC08091CC019091CD018F3F6D
S11302402FEF920709F441C001979093CD01809359
S1130250CC01892BD1F58091CE018823F9F08091CE
S1130260CA019091CB01009739F48FEF9FEF9093DF
S1130270CD018093CC0104C09093CD018093CC0137
S1130280E0E8F0E080818F7E8083E6ECF1E081811C
S11302908093890080818093880011C0E6ECF1E0AE
S11302A08281938197838683A0E8B0E08C918061FA
S11302B08C93818180938900808180938800E6EC0F
S11302C0F1E0908581E0892780878091BB018111CD
S11302D067C081E08093BB01C0E0D0E08C2F9E0119
S11302E0FE01E454FE4F9081992309F452C0AE01FB
S11302F0440F551FFA01EE53FE4F60817181FA01DC
S1130300E254FE4F408151816417750729F4F901C5
S1130310E454FE4F10823DC0A901440F551FFA0159
S1130320EE53FE4F60817181FA01E254FE4F408129
S11303305181641B750BAB0122F444275527461BDE
S1130340570B1416150614F441E050E0B901660F7A
S1130350771FFB01EE53FE4F0190F081E02DDB018E
S1130360A254BE4F6D917C91E617F7071CF451958A
S113037041955109220F331FF901E254FE4F2081A8
S11303803181420F531F51834083608171810E94E8
S1130390DC002196C230D10509F0A0CF1092BB0138
S11303A0FF91EF91DF91CF91BF91AF919F918F9189
S11303B07F916F915F914F913F912F910F900FBE5D
S11303C00F901F9018951F920F920FB60F92112441
S11303D02F938F939F93EF93FF9380910E01882324
S11303E009F46DC0809178002091790090E0922BFF
S11303F0E0910D0121E02E0F20930D01F0E0EE0FAE
S1130400FF1FE855FE4F91838083273009F04EC0CB
S113041010920D012091D001222309F461C08F387C
S113042022E0920708F057C05BC08091D001882376
S1130430E9F1E6ECF1E0128611861086E0E8F0E0DE
S113044010821092810080818F7E80832FC08E382D
S1130450924008F44AC02AC08091D001811126C07C
S1130460E6ECF1E081E08287108688EE93E09383E6
S1130470828384EF91E09583848380819181892BA9
S1130480A9F081E08187808788EE93E09783868353
S11304908AE08093810081818093890080818093A8
S11304A08800E0E8F0E0808180618083E0910D01C4
S11304B0F0E0EB5FFE4F8081806480937C0090913C
S11304C00E0181E0892780930E01EAE7F0E0808144
S11304D0806480830FC08091D1018111A6CFE6CFC3
S11304E02091D0012111E2CFB2CF8091D1018111AD
S11304F0B3CFDCCFFF91EF919F918F912F910F900C
S11305000FBE0F901F90189520E030E040E054E0BB
S1130510C901880F991FFC01EC56FE4F118210820D
S1130520FC01E256FE4F518340832F5F3F4F25303D
S1130530310571F708958FE380937E008FED8093EA
S11305407A0010927B0080E480937C0088B18F63F2
S113055088B9E8EAF1E080E094E0918380839383B2
S11305608283958384839783868391878087938707
S11305708287958784870E94840208950F931F932E
S1130580CF93DF935AB157985A98289AA4ECB9E0BC
S113059081E090E0FC016F9364E06A95F1F76F915C
S11305A03197C9F75C9AFC016F9364E06A95F1F79F
S11305B06F913197C9F739B15C98FC016F9364E08E
S11305C06A95F1F76F913197C9F75C9AFC016F93C3
S11305D064E06A95F1F76F913197C9F75C9833231A
S11305E01CF4119709F0D6CF5AB954B135B1EAB118
S11305F07BB12898442311F05A9A01C05A9884B1C7
S1130600826384B9579A213009F433C0862F90E06D
S113061095958795959587959595879595958795BE
S113062095B1082F017010E0000F111F282F2670BC
S1130630220F220F220F022B9D7C092B05B99BB19F
S113064088708295807F9F77892B8BB95C9A81E033
S113065090E0DC016F9364E06A95F1F76F91119774
S1130660C9F75C986F9364E06A95F1F76F9101970D
S1130670C9F785B1962F9170C92F90E0D92FCC0F6F
S1130680DD1F962F9670990F990F990FC92B8D7CAA
S1130690C82BC5B98BB168706295607F8F77682B62
S11306A06BB95C9A81E090E0DC016F9364E06A9539
S11306B0F1F76F911197C9F75C986F9364E06A95AD
S11306C0F1F76F910197C9F7EAB97BB954B935B914
S11306D0DF91CF911F910F910895529A209A549AC5
S11306E08EE190E028EE33E0F9016F9364E06A95BF
S11306F0F1F76F913197C9F70197B1F75AB157984C
S11307005A98289A24EC39E081E090E0FC016F9338
S113071064E06A95F1F76F913197C9F75C9AFC012F
S11307206F9364E06A95F1F76F913197C9F749B116
S11307305C98FC016F9364E06A95F1F76F913197CF
S1130740C9F75C9AFC016F9364E06A95F1F76F91C5
S11307503197C9F75C98442324F42150310909F0F6
S1130760D5CF5AB934B125B15AB14BB128985A985A
S113077084B1826384B9579A85B18D7C826185B9CD
S11307805F985C9A81E090E0FC016F9364E06A9565
S1130790F1F76F913197C9F75C986F9364E06A95AC
S11307A0F1F76F910197C9F75AB94BB934B925B923
S11307B086E090E028EE33E0F9016F9364E06A95F7
S11307C0F1F76F913197C9F70197B1F75AB157987B
S11307D05A98289A24EC39E081E090E0FC016F9368
S11307E064E06A95F1F76F913197C9F75C9AFC015F
S11307F06F9364E06A95F1F76F913197C9F749B146
S11308005C98FC016F9364E06A95F1F76F913197FE
S1130810C9F75C9AFC016F9364E06A95F1F76F91F4
S11308203197C9F75C98442324F42150310909F025
S1130830D5CF5AB934B125B15AB14BB128985A9889
S113084084B1826384B9579A85B18D7C826185B9FC
S11308505F985C9A81E090E0FC016F9364E06A9594
S1130860F1F76F913197C9F75C986F9364E06A95DB
S1130870F1F76F910197C9F75AB94BB934B925B952
S113088088EE93E0FC016F9364E06A95F1F76F9151
S11308903197C9F76F9364E06A95F1F76F91019707
S11308A0C9F75AB157985A98289A24EC39E081E04C
S11308B090E0FC016F9364E06A95F1F76F913197D2
S11308C0C9F75C9AFC016F9364E06A95F1F76F9144
S11308D03197C9F749B15C98FC016F9364E06A955C
S11308E0F1F76F913197C9F75C9AFC016F9364E05B
S11308F06A95F1F76F913197C9F75C98442324F412
S11309002150310909F0D5CF5AB934B125B15AB1C2
S11309104BB128985A9884B1826384B9579A85B1A7
S11309208D7C826185B95F985C9A81E090E0FC01DE
S11309306F9364E06A95F1F76F913197C9F75C980A
S11309406F9364E06A95F1F76F910197C9F75AB90B
S11309504BB934B925B988EE93E0FC016F9364E098
S11309606A95F1F76F913197C9F76F9364E06A95CF
S1130970F1F76F910197C9F75AB157985A98289A85
S113098024EC39E081E090E0FC016F9364E06A9527
S1130990F1F76F913197C9F75C9AFC016F9364E0AA
S11309A06A95F1F76F913197C9F749B15C98FC01E9
S11309B06F9364E06A95F1F76F913197C9F75C9A88
S11309C0FC016F9364E06A95F1F76F913197C9F771
S11309D05C98442324F42150310909F0D5CF5AB945
S11309E034B125B15AB14BB128985A9884B1826375
S11309F084B9579A85B18D7C806185B95F985C9A7A
S1130A0081E090E0FC016F9364E06A95F1F76F91E7
S1130A103197C9F75C986F9364E06A95F1F76F9129
S1130A200197C9F75AB94BB934B925B988EE93E09F
S1130A30FC016F9364E06A95F1F76F913197C9F700
S1130A406F9364E06A95F1F76F910197C9F75AB112
S1130A5057985A98289A24EC39E081E090E0FC01F8
S1130A606F9364E06A95F1F76F913197C9F75C9AD7
S1130A70FC016F9364E06A95F1F76F913197C9F7C0
S1130A8049B15C98FC016F9364E06A95F1F76F914A
S1130A903197C9F75C9AFC016F9364E06A95F1F7AA
S1130AA06F913197C9F75C98442324F4215031099C
S1130AB009F0D5CF5AB944B135B16AB15BB12898C0
S1130AC05A9884B1826384B9579A85B18D7C8061C8
S1130AD085B95F985C9A81E090E0FC016F9364E0D3
S1130AE06A95F1F76F913197C9F75C98FC016F93A0
S1130AF064E06A95F1F76F913197C9F725B12D7CC0
S1130B0025B95F9A5C9AFC016F9364E06A95F1F7EA
S1130B106F913197C9F75C986F9364E06A95F1F728
S1130B206F910197C9F76AB95BB944B935B95AB13C
S1130B3057985A98289A24EC39E081E090E0FC0117
S1130B406F9364E06A95F1F76F913197C9F75C9AF6
S1130B50FC016F9364E06A95F1F76F913197C9F7DF
S1130B6049B15C98FC016F9364E06A95F1F76F9169
S1130B703197C9F75C9AFC016F9364E06A95F1F7C9
S1130B806F913197C9F75C98442324F421503109BB
S1130B9009F0D5CF5AB944B135B16AB15BB12898DF
S1130BA05A9884B1826384B9579A85B18D7C85B98A
S1130BB05F985C9A81E090E0FC016F9364E06A9531
S1130BC0F1F76F913197C9F75C98FC016F9364E07A
S1130BD06A95F1F76F913197C9F725B12D7C25B945
S1130BE05F9A5C9AFC016F9364E06A95F1F76F91E8
S1130BF03197C9F75C986F9364E06A95F1F76F9148
S1130C000197C9F76AB95BB944B935B95AB157986C
S1130C105A98289A24EC39E081E090E0FC016F9323
S1130C2064E06A95F1F76F913197C9F75C9AFC011A
S1130C306F9364E06A95F1F76F913197C9F749B101
S1130C405C98FC016F9364E06A95F1F76F913197BA
S1130C50C9F75C9AFC016F9364E06A95F1F76F91B0
S1130C603197C9F75C98442324F42150310909F0E1
S1130C70D5CF5AB944B135B16AB15BB128985A9805
S1130C8084B1826384B9579A85B18D7C85B95F98A4
S1130C905C9A81E090E0FC016F9364E06A95F1F75F
S1130CA06F913197C9F75C98FC016F9364E06A9582
S1130CB0F1F76F913197C9F725B12D7C226025B9E1
S1130CC05F985C9AFC016F9364E06A95F1F76F9109
S1130CD03197C9F75C986F9364E06A95F1F76F9167
S1130CE00197C9F76AB95BB944B935B95AB157988C
S1130CF05A98289A24EC39E081E090E0FC016F9343
S1130D0064E06A95F1F76F913197C9F75C9AFC0139
S1130D106F9364E06A95F1F76F913197C9F749B120
S1130D205C98FC016F9364E06A95F1F76F913197D9
S1130D30C9F75C9AFC016F9364E06A95F1F76F91CF
S1130D403197C9F75C98442324F42150310909F000
S1130D50D5CF5AB944B135B16AB15BB128985A9824
S1130D6084B1826384B9579A85B18D7C85B95F98C3
S1130D705C9A81E090E0FC016F9364E06A95F1F77E
S1130D806F913197C9F75C98FC016F9364E06A95A1
S1130D90F1F76F913197C9F725B12D7C206325B9FF
S1130DA05F985C9AFC016F9364E06A95F1F76F9128
S1130DB03197C9F75C986F9364E06A95F1F76F9186
S1130DC00197C9F76AB95BB944B935B95AB15798AB
S1130DD05A98289A24EC39E081E090E0FC016F9362
S1130DE064E06A95F1F76F913197C9F75C9AFC0159
S1130DF06F9364E06A95F1F76F913197C9F749B140
S1130E005C98FC016F9364E06A95F1F76F913197F8
S1130E10C9F75C9AFC016F9364E06A95F1F76F91EE
S1130E203197C9F75C98442324F42150310909F01F
S1130E30D5CF5AB944B135B16AB15BB128985A9843
S1130E4084B1826384B9579A85B18D7C85B95F98E2
S1130E505C9A81E090E0FC016F9364E06A95F1F79D
S1130E606F913197C9F75C98FC016F9364E06A95C0
S1130E70F1F76F913197C9F725B12D7C206225B91F
S1130E805F9A5C9AFC016F9364E06A95F1F76F9145
S1130E903197C9F75C986F9364E06A95F1F76F91A5
S1130EA00197C9F76AB95BB944B935B908951F9276
S1130EB00F920FB60F9211242F933F934F935F938A
S1130EC06F937F938F939F93AF93BF93EF93FF930E
S1130ED09091C60080910C01E82FF0E0EF5FFE4F87
S1130EE02081921316C08F5F80930C01843099F493
S1130EF00E94850022E040E061E083E991E00E94E5
S1130F00BE02F894E0E6F0E088E1808388E0808324
S1130F10FFCF10920C01E091300181E08E0F8032FE
S1130F2009F480E020912F01281731F0F0E0E15F0F
S1130F30FE4F908380933001FF91EF91BF91AF9169
S1130F409F918F917F916F915F914F913F912F91DD
S1130F500F900FBE0F901F9018951F920F920FB60F
S1130F600F9211248F939F93AF93BF93EF93FF93AB
S1130F709091910180919201981789F0A1E9B1E0D3
S1130F80EC91F0E0E15FFE4F92A18C918F5F80368F
S1130F9009F480E0809391019093C60005C0E1ECD0
S1130FA0F0E080818F7D8083FF91EF91BF91AF91BD
S1130FB09F918F910F900FBE0F901F90189584B141
S1130FC08D7C84B985B1826385B9089548EE53E078
S1130FD093B19823E9F725E030E0FA016F9364E0D8
S1130FE06A95F1F76F913197C9F721503109A9F743
S1130FF093B1982369F722E330E048EE53E0FA0115
S11310006F9364E06A95F1F76F913197C9F72150B6
S11310103109A9F748EE53E093B19823E9F325E0A9
S113102030E0FA016F9364E06A95F1F76F913197BC
S1131030C9F721503109A9F793B1982369F30895A9
S11310400E945F000E9469000E949B020E946D033F
S113105082E08093C00086E08093C2001092C500B5
S113106085E18093C40088E98093C1000E94DF0772
S11310700895AF92BF92CF92DF92EF92FF920F93B7
S11310801F93CF93DF93CDB7DEB7A0970FB6F89435
S1131090DEBF0FBECDBF6B0180E8898380EC8A83FD
S11310A084E98B8384ED8C83FE01E20FF11D818141
S11310B0480F6AB157985A98289A24EC39E081E08D
S11310C090E0FC016F9364E06A95F1F76F913197BA
S11310D0C9F75C9AFC016F9364E06A95F1F76F912C
S11310E03197C9F759B15C98FC016F9364E06A9534
S11310F0F1F76F913197C9F75C9AFC016F9364E043
S11311006A95F1F76F913197C9F75C98552324F4E8
S11311102150310909F0D5CF6AB934B125B16AB18A
S11311205BB128985A9884B1826384B9579A842F02
S113113090E095958795959587959595879595953F
S1131140879595B180FBAA24A0F8B12CAA0CBB1CEE
S1131150782F7670770F770F770FA72A9D7C9A29BF
S113116095B99BB188708295807F9F77892B8BB9C5
S11311705C9A81E090E0FC016F9364E06A95F1F77A
S11311806F913197C9F75C98FC016F9364E06A959D
S1131190F1F76F913197C9F775B1A42FA170B0E041
S11311A0AA0FBB1FE42FE670EE0FEE0FEE0FAE2B6F
S11311B07D7CA72BA5B97BB148704295407F7F7792
S11311C0472B4BB95C9AFC016F9364E06A95F1F785
S11311D06F913197C9F75C986F9364E06A95F1F762
S11311E06F910197C9F76AB95BB934B925B9C114CC
S11311F0D10429F140E09601ADECBCEC0E94890DCC
S11312009C0136952795369527953695279571E057
S1131210740FE1E0F0E0EC0FFD1FE40FF11D40E37B
S11312204C0D822F880F982F990F990F980FC42E69
S1131230C91AC0826901472F232BE9F604C080E351
S1131240898371E003C0772309F4A9C081E090E0A9
S1131250FE01E70FF11D50816AB157985A98289AF8
S113126024EC39E0FC016F9364E06A95F1F76F9127
S11312703197C9F75C9AFC016F9364E06A95F1F7C2
S11312806F913197C9F749B15C98FC016F9364E0A1
S11312906A95F1F76F913197C9F75C9AFC016F93E6
S11312A064E06A95F1F76F913197C9F75C9844232C
S11312B024F42150310909F0D5CF6AB9E4B165B1FC
S11312C0BAB0FBB128985A9A24B1226324B9579A28
S11312D0252F30E035952795359527953595279514
S11312E03595279545B1022F017010E06801CC0CAB
S11312F0DD1C322F3670330F330F330F3C294D7CF6
S1131300342B35B94BB1322F38703295307F242FBE
S11313102F77322B3BB95C9ADC016F9364E06A95BA
S1131320F1F76F911197C9F75C98DC016F9364E052
S11313306A95F1F76F911197C9F735B150FBEE2417
S1131340E0F8F12C6701CC0CDD1C252F2670220F50
S1131350220F220F2C293D7C232B25B93BB1252FAD
S113136028702295207F3F77232B2BB95C9ADC01D0
S11313706F9364E06A95F1F76F911197C9F75C98E0
S1131380DC016F9364E06A95F1F76F911197C9F7E7
S1131390BAB8FBB9E4B965B9715009F059CFA09650
S11313A00FB6F894DEBF0FBECDBFDF91CF911F9172
S11313B00F91FF90EF90DF90CF90BF90AF90089582
S11313C0CF93DF93CDB7DEB7A1970FB6F894DEBF06
S11313D00FBECDBFF8948091B2019091B3018115F5
S11313E0944051F4E8EAF1E078940000F89482859E
S11313F0938581159440C1F308EA11E0F801A285B0
S1131400B3857894000028E833E10E94980D615078
S11314107E4F8F4F9F4F2FEF33E040E050E00E940C
S1131420670DDA01C901880F991FAA1FBB1F820F1C
S1131430931FA41FB51F0196A11DB11DBC01CD01B1
S1131440969587957795679520E044E083E991E048
S11314500E943908F894D8011A968D919C911B9793
S11314608115944049F4F80178940000F894828539
S1131470938581159440C1F3A091B201B091B30159
S11314807894000028E833E10E94980D61507E4F63
S11314908F4F9F4F2FEF33E040E050E00E94670DE5
S11314A0DA01C901880F991FAA1FBB1F820F931F5E
S11314B0A41FB51F0196A11DB11DB695A7959795BB
S11314C08795AC01892B39F480E3898311E039C015
S11314D0111137C0CFC280E011E0180FE1E0F0E055
S11314E0EC0FFD1FE80FF11D9A01ADECBCEC0E945E
S11314F0890D9695879596958795969587959C01E0
S1131500220F331F880F991F880F991F880F991F67
S1131510820F931FDA01A81BB90BCD01805D808374
S11315209A01ADECBCEC0E94890DAC01569547952F
S11315305695479556954795812F4115510561F666
S1131540C7CFE2E9F1E090E021E931E0692F0F2E05
S1131550F1ECEF2EF12CF02DAE01410F511DDA010B
S11315607C9180818F5F803609F4862FD9014C915C
S11315704817B9F3408181E0840F803609F4892F3C
S1131580D9015C91581739F050E0415F5E4FDA01A0
S113159092967C938083D7018C9180628C931150B6
S11315A0D9F668C290919101981739F0F0E0E15FA3
S11315B0FE4F9AE092A380939201E1ECF0E08081E7
S11315C08062808382E00E94E60784E690E00E94C5
S11315D0CD0084E690E00E94BE0088EE93E028EE01
S11315E033E0F9016F9364E06A95F1F76F913197F5
S11315F0C9F70197B1F780E090E00E94CD0080E048
S113160090E00E94BE000F2EF8EACF2EF1E0DF2E0C
S1131610F02D01E010E00F2EF2E9AF2EF1E0BF2E25
S1131620F02D0F2EF1E96F2EF1E07F2EF02D0F2E0D
S1131630F1EC8F2E912CF02D19A20F2EF8EEEF2E37
S1131640F3E0FF2EF02DF894F60182859385811541
S1131650944059F478940000F894D6011A968D9128
S11316609C911B9781159440A9F3F601A285B3853B
S11316707894000028E833E10E94980D61507E4F71
S11316808F4F9F4F2FEF33E040E050E00E94670DF3
S1131690DA01C901880F991FAA1FBB1FBA01A9014A
S11316A0480F591F6A1F7B1F4F5F5F4F6F4F7F4F5C
S11316B076956795579547957AB157985A98289A89
S11316C024EC39E0C8016F9364E06A95F1F76F91F7
S11316D00197C9F75C9AC8016F9364E06A95F1F7C2
S11316E06F910197C9F769B15C98C8016F9364E081
S11316F06A95F1F76F910197C9F75C9AC8016F93E6
S113170064E06A95F1F76F910197C9F75C986623D5
S113171024F42150310909F0D5CF7AB934B125B177
S11317207AB16BB128985A9884B1826384B9579A74
S113173085B18D7C85B95F9A5C9AC8016F9364E02A
S11317406A95F1F76F910197C9F75C98C8016F9397
S113175064E06A95F1F76F910197C9F785B18D7CC3
S1131760806285B95F985C9AC8016F9364E06A955A
S1131770F1F76F910197C9F75C98C8016F9364E022
S11317806A95F1F76F910197C9F77AB96BB934B9D2
S113179025B94115510519F1E0E09A01ADECBCEC15
S11317A00E94890D96958795969587959695879528
S11317B061E06E0F21E030E02C0F3D1F2E0F311D34
S11317C0F901405D382F330F232F220F220F230FEF
S11317D0421B4083AC01E62F892BF9F604C030E3A9
S11317E0398361E003C0662309F44DC1FE01E60FAD
S11317F0F11D50817AB157985A98289A24EC39E00F
S1131800C8016F9364E06A95F1F76F910197C9F786
S11318105C9AC8016F9364E06A95F1F76F91019740
S1131820C9F749B15C98C8016F9364E06A95F1F710
S11318306F910197C9F75C9AC8016F9364E06A9548
S1131840F1F76F910197C9F75C98442324F4215070
S1131850310909F0D5CF7AB974B145B1FAB1EBB118
S113186028985A9A84B1826384B9579A852F90E054
S1131870959587959595879595958795959587954C
S113188095B180FB222420F8312C9101220F331FC3
S1131890382F3670330F330F330F232B9D7C292BB6
S11318A025B99BB188708295807F9F77892B8BB9EE
S11318B05C9AC8016F9364E06A95F1F76F910197A0
S11318C0C9F75C98C8016F9364E06A95F1F76F916A
S11318D00197C9F725B150FB442440F8512CC201AB
S11318E0880F991F952F9670990F990F990F892B2F
S11318F0922F9D7C892B85B98BB158705295507F5E
S11319008F77582B5BB95C9AC8016F9364E06A9532
S1131910F1F76F910197C9F75C98C8016F9364E080
S11319206A95F1F76F910197C9F7FAB9EBB974B9F0
S113193045B9615009F05ACFA6C0D3019C919817BC
S113194039F0F0E0E15FFE4FBAE0B2A3F501808325
S1131950D4018C9180628C93F894F60182859385EE
S11319608115944059F478940000F894D6011A969D
S11319708D919C911B9781159440A9F3F601A28542
S1131980B3857894000028E833E10E94980D6150F3
S11319907E4F8F4F9F4F2FEF33E040E050E00E9487
S11319A0670DDA01C901880F991FAA1FBB1FBA016D
S11319B0A901480F591F6A1F7B1F4F5F5F4F6F4F6D
S11319C07F4F76956795579547954115510519F1C0
S11319D0E0E09A01ADECBCEC0E94890D96958795E8
S11319E0969587959695879561E06E0F21E030E096
S11319F02C0F3D1F2E0F311DF901405D382F330F81
S1131A00232F220F220F230F421B4083AC01E62F0A
S1131A10892BF9F604C030E3398391E003C0962F93
S1131A206623B9F0D501EC9181E08E0F803609F47C
S1131A3089A1D3012C91281751F0F0E0E15FFE4F0A
S1131A40DE01A90FB11D2C9122A3F50180839150D1
S1131A5049F7D4018C9180628C9384E690E0F7017D
S1131A606F9364E06A95F1F76F913197C9F7019725
S1131A70B1F7E9CDE091920181E08E0F803609F053
S1131A8091CD80E08FCDD501EC9181E08E0F803631
S1131A9009F053CF80E051CF0E94200878940E942F
S1131AA0E009E6ECF1E011861386108684EC99E0F7
S1131AB0918380831582148213821282EFE0F1E015
S1131AC010A211A210929101109292010895A1E224
S1131AD01A2EAA1BBB1BFD010DC0AA1FBB1FEE1FA4
S1131AE0FF1FA217B307E407F50720F0A21BB30BEF
S1131AF0E40BF50B661F771F881F991F1A9469F76B
S1131B0060957095809590959B01AC01BD01CF01C6
S1131B100895A29FB001B39FC001A39F700D811DC2
S1131B201124911DB29F700D811D1124911D0895E2
S1131B300E94890DB7FF0895821B930B0895EE0F41
S1111B40FF1F0590F491E02D0994F894FFCF57
S10F1B4E01747E7A3300010203040607D0
S9030000FC
